:020000040000FA
:020000000528D1
:040002000034003492
:0200080041288D
:06000A0083160313013010
:1000100085008801F03087008316031701308800BF
:1000200089018316031380309F008312031341302C
:100030009F0083160313843081000B118B168B17DE
:1000400083120313C830A100A001A201A301A401DF
:10005000A50185018701880164308100A420A928B9
:1000600082073F3406345B344F3466346D347D345C
:1000700007347F346F34003482070134023404348F
:100080000834F000030EF1000B194B20710E8300B1
:10009000F00E700E0900643081000B117E20080004
:1000A000831203139F1852289F149F1855281E0867
:1000B000A100831203130800A201A301A4012108D7
:1000C000A500C8302502031C6A280230A400C830ED
:1000D000A502722864302502031C72280130A40096
:1000E0006430A502A3010A302502031C7B280A30D4
:1000F000A502A30A73282508A20008000030870083
:1001000020083C2087008B20A00A2008033C031D08
:100110000800A00108002008003A031997282008C9
:10012000013A031999282008023A03199B28240848
:100130009C2823089C2822083020880008002130B1
:10014000A500A50BA1280800FA30A500A50BA6283C
:0A015000080050205C209F20A92821
:02400E00E123AC
:02401000FF3F70
:00000001FF
