:020000040000FA
:020000000C28CA
:040002000034003492
:08000800F000030EF100710E7F
:100010008300F00E700E0900831603138801890116
:10002000FF30850086018701831203138501860155
:100030008701A201A30106108610051C4820851C1B
:100040005020051D5720851D5F20282038201D28A1
:100050002208A100061466207520A10B2C2806108A
:10006000B4302202A1007520A10B33286F200800B4
:100070002308A100861466207520A10B3C28861059
:10008000B4302302A1007520A10B43286F20080083
:10009000A20A2208B53A031D0800B430A2000800E5
:1000A000A2032208FF3A031D0800A2010800A30AC8
:1000B0002308B53A031D0800B430A3000800A303C9
:1000C0002308FF3A031D0800A3010800FA30A4002A
:1000D0000000000000000000A40B68280800103099
:1000E000A5006620A50B712808000630A600A60B07
:1000F00077280800FA30A400FA30A500FA30A600EC
:0E010000A60B8028A50B7E28A40B7C280800E7
:02400E00E123AC
:02401000FF3F70
:00000001FF
